:020000040000FA
:1000000007309F00003085000430860083160030E2
:100010008500023086001930990024309800831240
:1000200090309800A001A00B13281A081A081A088B
:1000300085014030860060203B208617502032200A
:1000400023205F201E28A2002218A2102219A2112C
:10005000221BA21322080F3985002208F0398600DE
:1000600022080800A200A21FA217220808008C1E66
:1000700037281A08080050206A3C031D3B285020EE
:10008000623C031D3B285020703C031D3B28502040
:10009000723C031D3B2850206F3C031D3B28080089
:1000A0005E30A300EB30A4008C1A5C28A30B592807
:1000B000A40B5428003008008C1A1A080800080005
:0200C000080036
:02400E00503F21
:00000001FF
